:100000000C9463000C94E3010C94BC010C948B00E1
:100010000C948B000C948B000C948B000C948B0034
:100020000C948B000C948B000C948B000C948B0024
:100030000C948B000C948B000C948B000C948B0014
:100040000C941C060C948B000C946F030C944903C5
:100050000C948B000C948B000C948B000C948B00F4
:100060000C948B000C948B000000000024002700EF
:100070002A0000000000250028002B0000000000DE
:1000800023002600290004040404040404040202DA
:100090000202020203030303030301020408102007
:1000A0004080010204081020010204081020000012
:1000B0000008000201000003040700000000000027
:1000C0000000610A5B0A11241FBECFEFD8E0DEBF3B
:1000D000CDBF22E0A0EDB1E001C01D92AB3AB20766
:1000E000E1F711E0A0E0B1E0E4E7FFE102C0059034
:1000F0000D92A03DB107D9F710E0C2E6D0E004C0F0
:100100002197FE010E94AB0DC136D107C9F70E94AD
:1001100066060C94AD0F0C9400000895CF92DF9208
:10012000EF92FF920F931F93CF93DF936C017A01AD
:100130008B01C0E0D0E0CE15DF0581F0D8016D91D4
:100140008D01D601ED91FC910190F081E02DC60169
:100150000995892B11F02196EECF7E01C701DF9121
:10016000CF911F910F91FF90EF90DF90CF90089566
:10017000FC01538D448D252F30E0842F90E0821BAD
:10018000930B541710F0CF96089501970895FC0132
:10019000918D828D981761F0828DDF01A80FB11DBE
:1001A0005D968C91928D9F5F9F73928F90E00895E2
:1001B0008FEF9FEF0895FC01918D828D981731F09C
:1001C000828DE80FF11D858D90E008958FEF9FEFF0
:1001D0000895FC01918D228D892F90E0805C9F4FC6
:1001E000821B91098F739927089587EE91E00E94F1
:1001F000E90021E0892B09F420E0822F0895FC0119
:10020000848DDF01A80FB11DA35ABF4F2C91848D9F
:1002100090E001968F739927848FA689B7892C93D4
:10022000A089B1898C91837080648C93938D848D27
:10023000981306C00288F389E02D80818F7D80832A
:100240000895EF92FF920F931F93CF93DF93EC01EA
:1002500081E0888F9B8D8C8D981305C0E889F98982
:10026000808185FD26C0F62E0B8D10E00F5F1F4F9D
:100270000F731127E02E8C8DE8120CC00FB607FC0F
:10028000FACFE889F989808185FFF5CFCE010E94F8
:10029000FF00F1CF8B8DFE01E80FF11DE35AFF4FF8
:1002A000F0829FB7F8940B8FEA89FB898081806286
:1002B0000AC09FB7F894EE89FF896083E889F989BD
:1002C00080818370806480839FBF81E090E0DF91B4
:1002D000CF911F910F91FF90EF900895CF93DF93EF
:1002E000EC01888D8823C9F0EA89FB89808185FD2E
:1002F00005C0A889B9898C9186FD0FC00FB607FC8F
:10030000F5CF808185FFF2CFA889B9898C9185FFCF
:10031000EDCFCE010E94FF00E7CFDF91CF9108958E
:1003200080E090E0892B29F00E94F50081110C9467
:1003300000000895089580E090E008950E947B04F5
:1003400081E08093D6010895CF93DF93EC0160E0C4
:100350008E810E94D60461E08E810E94D60460E006
:100360008E810E94D6048BE891E00197F1F7DF912E
:10037000CF9108950E94980F1F920F920FB60F927F
:1003800011242F933F934F935F936F937F938F939A
:100390009F93AF93BF93EF93FF93E0910201F0918E
:1003A00003010995FF91EF91BF91AF919F918F91BB
:1003B0007F916F915F914F913F912F910F900FBE61
:1003C0000F901F9018951F920F920FB60F92112445
:1003D0002F933F934F935F936F937F938F939F934D
:1003E000AF93BF93EF93FF93E0910001F091010170
:1003F0000995FF91EF91BF91AF919F918F917F915F
:100400006F915F914F913F912F910F900FBE0F9081
:100410001F9018956115710579F0FB01019000207E
:10042000E9F73197AF01461B570BDC01ED91FC91C9
:100430000280F381E02D099480E090E008952F92EE
:100440003F924F925F926F927F928F929F92AF9264
:10045000BF92CF92DF92EF92FF920F931F93CF93B1
:10046000DF93CDB7DEB7A2970FB6F894DEBF0FBE0D
:10047000CDBF8C014A015B01D22E9A01AB01C501AF
:10048000B4010E94840D882319F060E371E027C055
:1004900024013501E89477F82FEF3FEF4FE75FE74E
:1004A000C301B2010E94840D81110DC02FEF3FEFF7
:1004B0004FE75FE7C301B2010E94160B18161CF448
:1004C00064E371E00CC02FEF3FEF4FE75FE4C5013D
:1004D000B4010E947F0D181634F468E371E0C8017E
:1004E0000E940A02BDC02FEF3FEF4FE75FECC5014E
:1004F000B4010E94160B87FDF0CF20E030E0A90187
:10050000C501B4010E94160B87FF0FC0D801ED9101
:10051000FC910190F081E02D6DE2C80109951C016C
:10052000B7FAB094B7F8B09402C0212C312CF12C5A
:1005300060E070E080E09FE3DF1441F020E030E015
:1005400040E251E40E94DE0CF394F6CFA501940141
:100550000E94720C4B015C010E94500D562E672EBA
:10056000782EC92E19A2262F372F482F592F7E01FA
:10057000B1E2EB0EF11CEAA24F2CCA01B9012AE04C
:1005800030E040E050E00E94890D605DF701629329
:100590007F01211531054105510579F7BF01C801DA
:1005A0000E940A027101E80EF91EDD2009F457C00D
:1005B000652D762D872D9C2D0E941B0B9B01AC0178
:1005C000C501B4010E94710C4B015C01D801ED9191
:1005D000FC910190F081E02D6EE2C8010995E80ED2
:1005E000F91E20E030E040E251E4C501B4010E9470
:1005F0007C0B4B015C010E94500D9B0140E050E0E0
:1006000019A22AA0342C562E632E742EC52ECA0190
:10061000B9012AE030E040E050E00E94890D605DC1
:10062000F10162931F01211531054105510579F74B
:10063000BF01C8010E940A02E80EF91E652D762D41
:10064000872D9C2D0E941B0B9B01AC01C501B401A1
:100650000E94710C4B015C01DA94D110C2CFC7012A
:10066000A2960FB6F894DEBF0FBECDBFDF91CF913B
:100670001F910F91FF90EF90DF90CF90BF90AF90C0
:100680009F908F907F906F905F904F903F902F90B2
:1006900008951F920F920FB60F9211242F933F933C
:1006A0004F935F936F937F938F939F93AF93BF937A
:1006B000EF93FF9387EE91E00E94FF00FF91EF918F
:1006C000BF91AF919F918F917F916F915F914F916A
:1006D0003F912F910F900FBE0F901F9018951F9272
:1006E0000F920FB60F9211242F938F939F93EF9336
:1006F000FF93E091F701F091F8018081E091FD0115
:10070000F091FE0182FD12C09081809100028F5F06
:100710008F7320910102821751F0E0910002F0E006
:10072000E951FE4F958F8093000201C08081FF91B7
:10073000EF919F918F912F910F900FBE0F901F906F
:100740001895CF92DF92EF92FF920F931F93CF9362
:10075000DF936C017C0187E0E80EF11CC0E0D0E083
:10076000062F10E0B8010C2E02C0759567950A940B
:10077000E2F76170F70181917F010E94D604219612
:10078000C430D10579F7C601DF91CF911F910F9148
:10079000FF90EF90DF90CF900C94A401CF92DF9266
:1007A000EF92FF920F931F93CF93DF93EC01F62EFE
:1007B000642F8C810E94D6048D818F3F19F060E0F8
:1007C0000E94D6048F850F2D10E084FF25C06E0196
:1007D00087E0C80ED11CE12CF12CB8010E2C02C010
:1007E000759567950A94E2F76170F60181916F0142
:1007F0000E94D604FFEFEF1AFF0A88E0E816F10422
:1008000061F7CE01DF91CF911F910F91FF90EF9093
:10081000DF90CF900C94A401B80184E075956795A2
:100820008A95E1F7CE010E94A1036F2DCE01DF91E1
:10083000CF911F910F91FF90EF90DF90CF900C948C
:10084000A10341E00E94CE0381E090E0089583304F
:1008500081F028F4813099F08230A1F0089587303A
:10086000A9F08830B9F08430D1F4809180008F7D78
:1008700003C0809180008F7780938000089584B5B5
:100880008F7702C084B58F7D84BD08958091B000BC
:100890008F7703C08091B0008F7D8093B000089562
:1008A0003FB7F8948091A3029091A402A091A50271
:1008B000B091A60226B5A89B05C02F3F19F001965E
:1008C000A11DB11D3FBFBA2FA92F982F8827820FD6
:1008D000911DA11DB11DBC01CD0142E0660F771F26
:1008E000881F991F4A95D1F7089540E0682F84E842
:1008F00092E00C94CE0381E00E9475048BE39FE1AB
:100900000197F1F70895BC0184E892E00C940A0283
:10091000643008F063E090919702691710F06FEF70
:10092000690FE62FF0E0EC57FD4F9489890F80683E
:100930000C947504CF93DF93BC0187EE91E00E9485
:100940000A02EC0162E471E087EE91E00E940A0283
:100950008C0F9D1FDF91CF910895CF93DF93282FA8
:1009600030E0F901E255FF4F8491F901E656FF4F5F
:10097000D491F901EA57FF4FC491CC2391F0811132
:100980000E942704EC2FF0E0EE0FFF1FE458FF4F0A
:10099000A591B491EC91ED2381E090E021F480E009
:1009A00002C080E090E0DF91CF9108951F93CF9334
:1009B000DF93282F30E0F901E255FF4F8491F901D0
:1009C000E656FF4FD491F901EA57FF4FC491CC236B
:1009D000C1F0162F81110E942704EC2FF0E0EE0FDA
:1009E000FF1FEE58FF4FA591B4919FB7F8941111D6
:1009F00004C08C91D095D82302C0EC91DE2BDC93FF
:100A00009FBFDF91CF911F910895CF93DF9390E027
:100A1000FC01E656FF4F2491FC01EA57FF4F8491F9
:100A2000882361F190E0880F991FFC01E859FF4F7E
:100A3000C591D491FC01EE58FF4FA591B49161117D
:100A400009C09FB7F8948881209582238883EC9110
:100A50002E230BC0623061F49FB7F8948881322F47
:100A6000309583238883EC912E2B2C939FBF06C057
:100A70008FB7F894E8812E2B28838FBFDF91CF9119
:100A80000895CF93DF93823028F09091930298607D
:100A900090939302809397021092980280E480933F
:100AA000990280E180939A0280E580939B0261E045
:100AB000809188020E940505809189028F3F19F07C
:100AC00061E00E94050561E080918A020E940505AF
:100AD000C4E8D2E09E01245832408091930284FD04
:100AE00003C084E090E002C088E090E021962817DF
:100AF00039072CF461E08E810E940505EBCF8BE372
:100B00009DE00197F1F760E0809188020E94D60491
:100B100060E080918A020E94D604809189028F3F12
:100B200019F060E00E94D6048091930284FD20C0F9
:100B300063E084E892E00E94A103CBE4D6E4CE0116
:100B40000197F1F763E084E892E00E94A103219706
:100B5000F1F763E084E892E00E94A10383E592E06C
:100B60000197F1F762E084E892E00E94A10315C0CA
:100B700080620E9475048BE496E40197F1F78091FE
:100B8000930280620E94750483E592E00197F1F779
:100B90008091930280620E9475048091930280622A
:100BA0000E94750484E0809394028CE00E94750496
:100BB0000E947B0482E08093950286E0DF91CF91D2
:100BC0000C9475048F929F92AF92BF92CF92DF9256
:100BD000EF92FF926B017C010E9450044B015C017B
:100BE000C114D104E104F104F1F00E945004DC01CD
:100BF000CB0188199909AA09BB09883E9340A10530
:100C0000B10570F321E0C21AD108E108F10888EEBD
:100C1000880E83E0981EA11CB11CC114D104E1040C
:100C2000F10419F7DDCFFF90EF90DF90CF90BF90E8
:100C3000AF909F908F9008951F920F920FB60F92D2
:100C400011242F933F938F939F93AF93BF938091E2
:100C5000E3019091E401A091E501B091E6013091AA
:100C6000A20223E0230F2D3720F40196A11DB11D10
:100C700005C026E8230F0296A11DB11D2093A202F4
:100C80008093E3019093E401A093E501B093E60122
:100C90008091A3029091A402A091A502B091A60216
:100CA0000196A11DB11D8093A3029093A402A0936D
:100CB000A502B093A602BF91AF919F918F913F91F2
:100CC0002F910F900FBE0F901F901895789484B5B8
:100CD000826084BD84B5816084BD85B5826085BD38
:100CE00085B5816085BD80916E00816080936E00C6
:100CF00010928100809181008260809381008091B8
:100D00008100816080938100809180008160809368
:100D100080008091B10084608093B1008091B00028
:100D200081608093B00080917A00846080937A0023
:100D300080917A00826080937A0080917A0081604D
:100D400080937A0080917A00806880937A00109274
:100D5000C100E091F701F091F80182E08083E09119
:100D6000F301F091F4011082E091F501F091F601A8
:100D70008FEC80831092FF01E091FB01F091FC0168
:100D800086E08083E091F901F091FA018081806131
:100D90008083E091F901F091FA018081886080837D
:100DA000E091F901F091FA01808180688083E091FF
:100DB000F901F091FA0180818F7D808382E00E94A9
:100DC000410561E08DE00E94050562E082E00E943D
:100DD000050562E08AE00E94050562E088E00E9465
:100DE000050562E089E00E9405058EE991E0909397
:100DF0000101809300018091690083608093690004
:100E0000E89A80919402982F9460909394028C6059
:100E10000E94750490E4392EC1E0D0E002E010E0B9
:100E20008CE391E00E949A048091E1019091E201AB
:100E3000892B09F003C11092DD011092DE0110929E
:100E4000DF011092E00182E3E82EF12C30927C0069
:100E500080917A00806480937A0080917A0086FD88
:100E6000FCCF609178008091790070E0782B072E9C
:100E7000000C880B990B0E941D0B20E030E040EA2B
:100E800050E40E947C0B20E030EC4FE754E40E94D9
:100E9000DE0C2AE037ED43E25CE30E94DE0C209199
:100EA000DD013091DE014091DF015091E0010E94AF
:100EB000720C4B015C016093DD017093DE01809345
:100EC000DF019093E0016AE070E080E090E00E9432
:100ED000E20521E0E21AF10809F0B8CF20E030E0A5
:100EE00048E452E4C501B4010E94DE0CAB01BC0130
:100EF0004093DD015093DE016093DF017093E001C8
:100F000022E087EE91E00E941F0262E471E087EE2A
:100F100091E00E940A0260E080E00E94880485E47B
:100F200091E00E9483044091DD015091DE016091C7
:100F3000DF017091E00122E084E892E00E941F024C
:100F400061E080E00E9488048EE491E00E948304C6
:100F5000409108015091090160910A0170910B01C3
:100F600022E084E892E00E941F0261E08AE00E9491
:100F7000880461E08FE00E9488048CE491E00E9484
:100F800083048091DB019091DC0161E0892B31F0D9
:100F90008DE00E94880482E591E005C08DE00E940A
:100FA000880485E591E00E94830480900801909078
:100FB0000901A0900A01B0900B01409004015090EB
:100FC00005016090060170900701C090DD01D0908E
:100FD000DE01E090DF01F090E001A3019201C50184
:100FE000B4010E94710CA70196010E947F0D87FD3C
:100FF00009C061E08DE00E94D604D093DC01C0936B
:10100000DB0116C0A3019201C501B4010E94720C5C
:101010009B01AC01C701B6010E947F0D87FD0EC088
:1010200060E08DE00E94D6041092DC011092DB019A
:101030006AE070E080E090E00E94E2058AE00E94B1
:10104000AD04019709F056C089E591E00E949A0429
:101050002FB7F8948091E3019091E401A091E5010C
:10106000B091E6012FBF8093D7019093D801A09350
:10107000D901B093DA018AE00E94AD040197D9F357
:101080002FB7F8948091E3019091E401A091E501DC
:10109000B091E6012FBF4091D7015091D8016091E6
:1010A000D9017091DA01841B950BA60BB70B803D1B
:1010B0009740A105B105F0F060E08DE00E94D604F4
:1010C000D093E201C093E1011092DC011092DB01A8
:1010D0000E947B0460E080E00E94880481E691E049
:1010E0000E94830461E087E00E94880489E691E021
:1010F0000E94830488E00E94AD04019709F05EC05D
:1011000089E591E00E949A042FB7F8948091E30159
:101110009091E401A091E501B091E6012FBF809389
:10112000D7019093D801A093D901B093DA0188E058
:101130000E94AD040197D9F32FB7F8948091E30191
:101140009091E401A091E501B091E6012FBF40919B
:10115000D7015091D8016091D9017091DA01841BB7
:10116000950BA60BB70B803D9740A105B10530F15B
:1011700060E08DE00E94D6041092E2011092E1013D
:101180001092DC011092DB010E947B0460E080E0A1
:101190000E94880481E691E00E94830461E087E078
:1011A0000E94880483E791E00E94830464EF71E069
:1011B00080E090E00E94E2050E947B048091D601CD
:1011C000882309F475C160E080E00E9488048AE702
:1011D00091E00E94830460E08BE00E9488048BE42D
:1011E00091E00E94830461E080E00E94880486E828
:1011F00091E00E94830461E087E00E9488048CE40F
:1012000091E00E94830461E088E00E9488048EE8F7
:1012100091E00E9483048AE00E94AD047C0181E099
:10122000E816F10409F09CC00E947B0487E991E074
:101230000E949A04F092D501E092D4010E947B04AE
:1012400060E080E00E94880489EA91E00E948304C3
:1012500061E081E00E94880489EB91E00E948304B0
:10126000409108015091090160910A0170910B01B0
:1012700022E084E892E00E941F021092D1011092B5
:10128000D0018091D4019091D501019709F068C0F7
:101290006CE271E080E090E00E94E20589E00E944B
:1012A000AD04019721F41092D5011092D4018091E0
:1012B000D0019091D101892BA9F062E370E080E028
:1012C00090E00E94E20520E030E040E05FE36091C2
:1012D00008017091090180910A0190910B010E940F
:1012E000720C19C088E00E94AD04019789F562E391
:1012F00070E080E090E00E94E20520E030E040E015
:101300005FE3609108017091090180910A01909159
:101310000B010E94710C6093080170930901809386
:101320000A0190930B0161E081E00E94880489EB3F
:1013300091E00E948304409108015091090160915D
:101340000A0170910B0122E084E892E00E941F02E2
:101350008AE00E94AD049093D1018093D00191CF97
:1013600088E00E94AD04019709F098C00E947B04B8
:101370001093D5010093D4010E947B0460E080E0CB
:101380000E94880489EA91E00E94830461E081E080
:101390000E94880485EC91E00E948304409104013E
:1013A00050910501609106017091070122E084E8E7
:1013B00092E00E941F021092D3011092D2018091FC
:1013C000D4019091D501029709F068C06CE271E0F8
:1013D00080E090E00E94E20589E00E94AD04019760
:1013E00021F41092D5011092D4018AE00E94AD043C
:1013F0000197A9F462E370E080E090E00E94E205CA
:1014000020E030E040E05FE360910401709105016D
:1014100080910601909107010E94720C1AC0809180
:10142000D2019091D301892B89F162E370E080E0D1
:1014300090E00E94E20520E030E040E05FE3609150
:1014400004017091050180910601909107010E94AD
:10145000710C6093040170930501809306019093D1
:10146000070161E081E00E94880485EC91E00E9420
:10147000830440910401509105016091060170912F
:10148000070122E084E892E00E941F0288E00E94A7
:10149000AD049093D3018093D20191CF89E00E9453
:1014A000AD04019709F08ACE1092D6010E947B0408
:1014B0000E949001B5CC80919C0290919D020C9469
:1014C000490E1092EA011092E90188EE93E0A0E043
:1014D000B0E08093EB019093EC01A093ED01B09309
:1014E000EE0186E191E09093E8018093E70185ECBD
:1014F00090E09093F4018093F30184EC90E090935A
:10150000F6018093F50180EC90E09093F8018093D0
:10151000F70181EC90E09093FA018093F90182EC5D
:1015200090E09093FC018093FB0186EC90E0909317
:10153000FE018093FD0110920002109201021092B0
:1015400002021092030210929D0210929C021092CD
:101550009F0210929E021092A1021092A00261E0DE
:1015600070E080E090E00E94D20E009791F090939E
:101570009D0280939C0210929F0210929E022091E5
:10158000A0023091A102232B09F043C0FC0110827C
:1015900040C080919C0290919D02009711F00E94A2
:1015A000490E10929D0210929C021092A10210927C
:1015B000A00210929F0210929E0210928702109237
:1015C000860288E291E090938502809384028CE009
:1015D000809388028FEF809389028BE080938A0248
:1015E00084E080938B0285E080938C0286E0809378
:1015F0008D0287E080938E0210928F0210929002EB
:1016000010929102109292021092930281E00C9437
:1016100041051092A1021092A00264E471E0809151
:101620009C0290919D020E94A60FC7CF0E94580B6A
:1016300008F481E00895E89409C097FB3EF4909582
:101640008095709561957F4F8F4F9F4F9923A9F09B
:10165000F92F96E9BB279395F6958795779567952A
:10166000B795F111F8CFFAF4BB0F11F460FF1BC06E
:101670006F5F7F4F8F4F9F4F16C0882311F096E901
:1016800011C0772321F09EE8872F762F05C06623AF
:1016900071F096E8862F70E060E02AF09A95660F68
:1016A000771F881FDAF7880F9695879597F9089521
:1016B000990F0008550FAA0BE0E8FEEF1616170663
:1016C000E807F907C0F012161306E407F50798F0CB
:1016D000621B730B840B950B39F40A2661F0232BE4
:1016E000242B252B21F408950A2609F4A140A69560
:1016F0008FEF811D811D08950E948F0B0C94000CAB
:101700000E94F20B38F00E94F90B20F0952311F0A3
:101710000C94E90B0C94EF0B11240C94340C0E94E4
:10172000110C70F3959FC1F3950F50E0551F629F08
:10173000F001729FBB27F00DB11D639FAA27F00D2A
:10174000B11DAA1F649F6627B00DA11D661F829F51
:101750002227B00DA11D621F739FB00DA11D621F36
:10176000839FA00D611D221F749F3327A00D611D53
:10177000231F849F600D211D822F762F6A2F112435
:101780009F5750409AF0F1F088234AF0EE0FFF1F68
:10179000BB1F661F771F881F91505040A9F79E3FBF
:1017A000510580F00C94E90B0C94340C5F3FE4F38A
:1017B000983ED4F3869577956795B795F795E79515
:1017C0009F5FC1F7FE2B880F911D9695879597F91E
:1017D000089597F99F6780E870E060E008959FEFB3
:1017E00080EC089500240A941616170618060906B8
:1017F000089500240A941216130614060506089587
:10180000092E0394000C11F4882352F0BB0F40F40E
:10181000BF2B11F460FF04C06F5F7F4F8F4F9F4F4E
:10182000089557FD9058440F551F59F05F3F71F0D0
:101830004795880F97FB991F61F09F3F79F0879537
:101840000895121613061406551FF2CF4695F1DFC0
:1018500008C0161617061806991FF1CF8695710550
:10186000610508940895E894BB2766277727CB0184
:1018700097F908952F923F924F925F926F927F92C5
:101880008F929F92AF92BF92CF92DF92EF92FF9290
:101890000F931F93CF93DF93CDB7DEB7CA1BDB0B3C
:1018A0000FB6F894DEBF0FBECDBF09942A883988E1
:1018B00048885F846E847D848C849B84AA84B984E8
:1018C000C884DF80EE80FD800C811B81AA81B981F4
:1018D000CE0FD11D0FB6F894DEBF0FBECDBFED0108
:1018E00008955058BB27AA270E94890C0C94000C1D
:1018F0000E94F20B38F00E94F90B20F039F49F3F60
:1019000019F426F40C94EF0B0EF4E095E7FB0C941D
:10191000E90BE92F0E94110C58F3BA1762077307FD
:101920008407950720F079F4A6F50C94330C0EF497
:10193000E0950B2EBA2FA02D0B01B90190010C01DF
:10194000CA01A0011124FF27591B99F0593F50F4F7
:10195000503E68F11A16F040A22F232F342F44274F
:10196000585FF3CF469537952795A795F040539547
:10197000C9F77EF41F16BA0B620B730B840BBAF017
:101980009150A1F0FF0FBB1F661F771F881FC2F782
:101990000EC0BA0F621F731F841F48F48795779596
:1019A0006795B795F7959E3F08F0B0CF9395880F50
:1019B00008F09927EE0F9795879508950E94F20CED
:1019C0000C94000C0E94F90B58F00E94F20B40F0AE
:1019D00029F45F3F29F00C94E90B51110C94340C5D
:1019E0000C94EF0B0E94110C68F39923B1F355236B
:1019F00091F3951B550BBB27AA2762177307840722
:101A000038F09F5F5F4F220F331F441FAA1FA9F3B7
:101A100035D00E2E3AF0E0E832D091505040E695A5
:101A2000001CCAF72BD0FE2F29D0660F771F881F06
:101A3000BB1F261737074807AB07B0E809F0BB0BF9
:101A4000802DBF01FF2793585F4F3AF09E3F51050D
:101A500078F00C94E90B0C94340C5F3FE4F3983E5F
:101A6000D4F3869577956795B795F7959F5FC9F7F6
:101A7000880F911D9695879597F90895E1E0660F77
:101A8000771F881FBB1F621773078407BA0720F0F0
:101A9000621B730B840BBA0BEE1F88F7E095089559
:101AA0000E94190C88F09F5798F0B92F9927B751C9
:101AB000B0F0E1F0660F771F881F991F1AF0BA95F2
:101AC000C9F714C0B13091F00E94330CB1E0089511
:101AD0000C94330C672F782F8827B85F39F0B93F03
:101AE000CCF3869577956795B395D9F73EF49095A5
:101AF0008095709561957F4F8F4F9F4F08950E94FD
:101B0000580B08F48FEF08950E94580B880B990B1F
:101B10000895A1E21A2EAA1BBB1BFD010DC0AA1F2E
:101B2000BB1FEE1FFF1FA217B307E407F50720F046
:101B3000A21BB30BE40BF50B661F771F881F991FC1
:101B40001A9469F760957095809590959B01AC010A
:101B5000BD01CF010895EE0FFF1F0590F491E02D18
:101B600009940F931F93CF93DF938230910510F464
:101B700082E090E0E091A902F091AA0220E030E03A
:101B8000A0E0B0E0309719F14081518102811381CA
:101B900048175907C8F08417950769F4109731F072
:101BA00012960C93129713961C9327C00093A902C8
:101BB0001093AA0222C02115310519F042175307CC
:101BC00018F49A01BD01EF01DF01F801DBCF211507
:101BD0003105F9F0281B390B2430310580F48A8156
:101BE0009B816115710521F0FB019383828304C001
:101BF0009093AA028093A902FE01329644C0FE018E
:101C0000E20FF31F81939193225031093983288386
:101C10003AC02091A7023091A802232B41F42091D1
:101C20000E0130910F013093A8022093A70220915A
:101C30000C0130910D012115310541F42DB73EB74E
:101C40004091100150911101241B350BE091A70226
:101C5000F091A802E217F307A0F42E1B3F0B281700
:101C6000390778F0AC014E5F5F4F2417350748F015
:101C70004E0F5F1F5093A8024093A7028193919348
:101C800002C0E0E0F0E0CF01DF91CF911F910F9112
:101C90000895CF93DF93009709F481C0FC01329738
:101CA00013821282A091A902B091AA02109781F426
:101CB00020813181820F931F2091A7023091A802C9
:101CC0002817390751F5F093A802E093A70267C0DF
:101CD000ED0120E030E0CE17DF0740F44A815B8160
:101CE0009E0141155105F1F0EA01F5CFD383C2837E
:101CF00040815181840F951FC817D90759F48881F5
:101D00009981840F951F0296918380838A819B819C
:101D1000938382832115310529F4F093AA02E0937D
:101D2000A9023DC0E901FB83EA8349915991C40F9F
:101D3000D51FEC17FD0761F480819181840F951FF9
:101D40000296E90199838883828193819B838A83A8
:101D5000E0E0F0E012968D919C911397009719F0B6
:101D6000FD01DC01F7CF8D919C9111979D012E5FB4
:101D70003F4F820F931F2091A7023091A80228178E
:101D8000390769F4309729F41092AA021092A90237
:101D900002C013821282B093A802A093A702DF911F
:101DA000CF910895A0E0B0E0E8EDFEE00C943E0C89
:101DB000EC01009721F4CB010E94B10DB4C0FC01ED
:101DC000E60FF71F9C0122503109E217F30708F4D0
:101DD000A8C0D9010D911C91119706171707B0F0F3
:101DE0000530110508F49BC0C801049786179707B2
:101DF00008F495C002501109061B170B01931193AB
:101E00006D937C93CF010E94490E89C05B01A01A9B
:101E1000B10A4C01800E911EA091A902B091AA02B4
:101E2000612C712CE12CF12C109709F446C08D9196
:101E30009C911197A815B905B1F56C0142E0C40E4B
:101E4000D11CCA14DB0478F14C018A189B08640188
:101E500042E0C40ED11C1296BC9012971396AC911E
:101E6000B5E0CB16D10440F0B282A3839182808288
:101E7000D9016D937C9309C00E5F1F4F800F911F96
:101E8000F90191838083EB2DFA2FE114F10431F0F5
:101E9000D7011396FC93EE93129741C0F093AA02D8
:101EA000E093A9023CC06816790608F43C017D0164
:101EB00012960D90BC91A02DB7CF8091A702909162
:101EC000A80288169906E1F466167706C8F4809190
:101ED0000C0190910D01009741F48DB79EB7409190
:101EE000100150911101841B950BE817F907C8F4F4
:101EF000F093A802E093A702F901718360830FC0F9
:101F0000CB010E94B10D7C01009759F0A801BE01E0
:101F10000E949D0FCE010E94490EC70104C0CE0150
:101F200002C080E090E0CDB7DEB7EEE00C945A0C32
:101F300081E090E0F8940C94AD0FFB01DC0102C04D
:101F400001900D9241505040D8F70895FB01DC01FB
:101F500001900D920020E1F7089510E0C2E6D0E074
:101F600004C0FE010E94AB0D2196C336D107C9F70C
:041F7000F894FFCF13
:101F74008D008D000000803F0000C4410000AB02D2
:101F840080000000000021018E00B8006E01E9000D
:101F9400C700DB000000000021048E009B019A01B1
:101FA4006E616E00696E66006F76660054657374C8
:101FB40065000D0A00417475616C3A202000537469
:101FC40020004F4E004F4646006D656E7361676595
:101FD4000053697374656D61004465736C6967616E
:101FE400646F004C696761646F00436F6E66696774
:101FF400204D6F64650055702074656D70004477E2
:102004006E2048697374004573746F75206E6F2079
:102014007768696C65204F4B004D6F64652053658C
:1020240074204F4B20656E640053657420506F69B3
:102034006E743A200053657420486973742000005C
:107E0000112484B714BE81FFF0D085E080938100F7
:107E100082E08093C00088E18093C10086E0809377
:107E2000C20080E18093C4008EE0C9D0259A86E02C
:107E300020E33CEF91E0309385002093840096BBD3
:107E4000B09BFECF1D9AA8958150A9F7CC24DD24C4
:107E500088248394B5E0AB2EA1E19A2EF3E0BF2EE7
:107E6000A2D0813461F49FD0082FAFD0023811F036
:107E7000013811F484E001C083E08DD089C08234E0
:107E800011F484E103C0853419F485E0A6D080C0E4
:107E9000853579F488D0E82EFF2485D0082F10E0AE
:107EA000102F00270E291F29000F111F8ED06801E7
:107EB0006FC0863521F484E090D080E0DECF843638
:107EC00009F040C070D06FD0082F6DD080E0C81688
:107ED00080E7D80618F4F601B7BEE895C0E0D1E017
:107EE00062D089930C17E1F7F0E0CF16F0E7DF06D8
:107EF00018F0F601B7BEE89568D007B600FCFDCFD4
:107F0000A601A0E0B1E02C9130E011968C91119780
:107F100090E0982F8827822B932B1296FA010C0160
:107F200087BEE89511244E5F5F4FF1E0A038BF0790
:107F300051F7F601A7BEE89507B600FCFDCF97BE46
:107F4000E89526C08437B1F42ED02DD0F82E2BD052
:107F50003CD0F601EF2C8F010F5F1F4F84911BD097
:107F6000EA94F801C1F70894C11CD11CFA94CF0C13
:107F7000D11C0EC0853739F428D08EE10CD085E9AC
:107F80000AD08FE07ACF813511F488E018D01DD067
:107F900080E101D065CF982F8091C00085FFFCCF94
:107FA0009093C60008958091C00087FFFCCF809118
:107FB000C00084FD01C0A8958091C6000895E0E648
:107FC000F0E098E1908380830895EDDF803219F02E
:107FD00088E0F5DFFFCF84E1DECF1F93182FE3DFCA
:107FE0001150E9F7F2DF1F91089580E0E8DFEE27F6
:047FF000FF270994CA
:027FFE00040479
:0400000300007E007B
:00000001FF
